:020000040800F2
:100000000808002029020008812F0008592C000848
:100010007D2F000821040008354100080000000081
:10002000000000000000000000000000F52F0008A4
:10003000DD05000800000000F12F00084D30000829
:10004000430200084302000843020008430200087C
:10005000430200084302000843020008430200086C
:10006000430200084302000843020008430200085C
:10007000430200084302000843020008430200084C
:10008000430200084302000843020008430200083C
:10009000430200084302000843020008430200082C
:1000A000430200084302000843020008430200081C
:1000B000430200084302000843020008430200080C
:1000C00043020008430200084302000843020008FC
:1000D00043020008713E0008430200084302000882
:1000E00043020008430200084302000843020008DC
:1000F00043020008430200084302000843020008CC
:1001000043020008430200084302000843020008BB
:1001100043020008430200084302000843020008AB
:1001200043020008430200082504000843020008B7
:10013000430200084302000843020008430200088B
:10014000430200084302000843020008430200087B
:100150004302000843020008350400084302000877
:10016000430200084302000843020008430200085B
:100170004302000843020008430200080000000098
:10018000430200084302000800F002F800F03CF8C7
:100190000AA090E8000C82448344AAF10107DA45E2
:1001A00001D100F031F8AFF2090EBAE80F0013F0F8
:1001B000010F18BFFB1A43F0010318477C480000E9
:1001C0009C480000103A24BF78C878C1FAD852077A
:1001D00024BF30C830C144BF04680C6070470000C1
:1001E0000023002400250026103A28BF78C1FBD840
:1001F000520728BF30C148BF0B6070471FB504F0DD
:10020000FDFB1FBD10B510BD00F0D0F81146FFF783
:10021000F5FF03F0F1FF00F0EEF803B4FFF7F2FF93
:1002200003BC00F0F5F80000094880470948004782
:10023000FEE7FEE7FEE7FEE7FEE7FEE7FEE7FEE796
:10024000FEE7FEE704480549054A064B70470000F3
:100250001131000889010008080200200808002068
:10026000080400200804002053EA020C00F0698012
:100270002DE9F04B4FF00006002B1FBFB3FA83F5BA
:1002800003FA05F424FA05F65E4012BF1643B2FAEB
:1002900082F502FA05F4C5F120051EBF22FA05FC1D
:1002A00044EA0C04203556EA044C4FEA144418BFC3
:1002B000641C4FF000084FF00009904271EB030CF2
:1002C00039D3002919BFB1FA81F701FA07F6B0FA5C
:1002D00080F700FA07F6C7F120071EBF20FA07FCD7
:1002E00046EA0C062037B6FBF4FCA7EB0507103FE7
:1002F00007F01F0BCBF120062CFA06F60CFA0BFBCD
:1003000044BFB3460026202FA4BF5E464FF0000B2B
:100310005BEA060C08BF4FF0010B19EB0B0948EB29
:100320000608ABFB027C06FB02CC0BFB03CCC01B1C
:1003300071EB0C01C1E70B46024641464846BDE859
:10034000F08B13B5084318BF4FF0FF300146AFF3F1
:100350000080BDE81C4070474FF0000200B5134616
:1003600094469646203922BFA0E80C50A0E80C50D5
:10037000B1F12001BFF4F7AF090728BFA0E80C5086
:1003800048BF0CC05DF804EB890028BF40F8042B7F
:1003900008BF704748BF20F8022B11F0804F18BFEC
:1003A00000F8012B7047704770477047754600F0A2
:1003B0002BF8AE4605006946534620F007008546F7
:1003C00018B020B5FFF73EFFBDE820404FF0000613
:1003D0004FF000074FF000084FF0000BAC46ACE8C0
:1003E000C009ACE8C009ACE8C009ACE8C00921F01C
:1003F00007018D46704710B50446AFF300802046D4
:10040000BDE81040FFF709BF00487047100000200A
:1004100001491820ABBEFEE726000200704700002D
:10042000FFE7FEE780B540F27400C2F2000000F082
:1004300077F980BD80B540F2D400C2F2000000F030
:100440006FF980BD82B001900198007810384AF6AB
:10045000AB21CAF6AA21A0FB011000090090009967
:1004600044F62E20C0F60000405C0199C865009853
:10047000042807D3FFE701990868042262F3090002
:10048000886506E00199086840F2FF32904388656C
:10049000FFE70198806D02B07047000086B00590BC
:1004A00000208DF813000598806A039005988069F4
:1004B00010BBFFE70398029003281BD80299DFE8DE
:1004C00001F0020D0218059890F82F00C00720B126
:1004D000FFE701208DF81300FFE70CE00598C06AE4
:1004E000B0F1C07F04D1FFE701208DF81300FFE7D2
:1004F00001E000E0FFE745E005988069B0F5005FA6
:1005000025D1FFE70398019003281ED80199DFE861
:1005100001F00206021101208DF8130016E0059883
:1005200090F82F00C00720B1FFE701208DF81300DD
:10053000FFE70BE00598C06AB0F1C07F04D1FFE788
:1005400001208DF81300FFE700E0FFE719E00398B2
:100550000090032804D3FFE70098032804D00EE09E
:1005600001208DF813000BE0059890F82F00C007CC
:1005700020B1FFE701208DF81300FFE700E0FFE75F
:10058000FFE7FFE79DF8130006B0704784B00390C3
:1005900002910192009303980168086820F480207A
:1005A00008600098039909684860039880684028AB
:1005B00009D1FFE7019803990968886002980399B7
:1005C0000968C86008E00298039909688860019882
:1005D00003990968C860FFE704B0704770470000DE
:1005E00081B0EFF3108072B60090FFE7FEE70000E5
:1005F00080B584B002900298806D019000F050FDAB
:100600000090029890F8350002280DD0FFE702997B
:1006100080204865FFE70299002081F83400FFE759
:1006200001208DF80F0055E002980168086820F05D
:100630001600086002980168486920F0800048614F
:100640000298006C20B9FFE70298806C38B1FFE790
:1006500002980168086820F008000860FFE7029827
:100660000168086820F001000860FFE70298006850
:100670000068C007C8B1FFE700F012FD0099401AFA
:10068000062811D3FFE7029920204865029903202C
:1006900081F83500FFE70299002081F83400FFE778
:1006A00003208DF80F0015E0E0E70298C16D3F20B0
:1006B0008840019988600299012081F83500FFE7A0
:1006C0000299002081F83400FFE7FFE700208DF851
:1006D0000F00FFE79DF80F0004B080BD82B00090CE
:1006E000009890F83500022807D0FFE70099802095
:1006F000486501208DF807000EE00099052081F87B
:10070000350000980168086820F001000860FFE7E4
:1007100000208DF80700FFE79DF8070002B0704742
:1007200080B586B005900020039040F20000C2F230
:100730000000006848F2B511C1F64E31A0FB01106F
:10074000800A02900598806D0190019800680490DD
:1007500004980599C96DC840000700281AD5FFE71D
:100760000598006800684007002812D5FFE7059843
:100770000168086820F0040008600598C16D082031
:100780008840019988600599486D40F001004865EE
:10079000FFE7FFE704980599C96DC840C007A0B1FD
:1007A000FFE7059800684069000600280CD5FFE7C0
:1007B0000598C16D01208840019988600599486DB0
:1007C00040F002004865FFE7FFE704980599C96D0E
:1007D000C8404007002814D5FFE705980068006866
:1007E000800700280CD5FFE70598C16D04208840DC
:1007F000019988600599486D40F004004865FFE75D
:10080000FFE704980599C96DC840C006002847D580
:10081000FFE7059800680068000700283FD5FFE75C
:100820000598C16D1020884001998860059800687E
:100830000068400300281AD5FFE7059800680068A3
:100840000003002809D4FFE70598006C20B1FFE7FA
:100850000598016C8847FFE708E00598806C20B197
:10086000FFE70598816C8847FFE7FFE716E00598EA
:1008700000680068C005002807D4FFE705980168F4
:10088000086820F008000860FFE70598006C20B1B8
:10089000FFE70598016C8847FFE7FFE7FFE7FFE701
:1008A00004980599C96DC8408006002840F18D80E4
:1008B000FFE7059800680068C006002840F18480C2
:1008C000FFE70598C16D2020884001998860059850
:1008D00090F83500052834D1FFE7059801680868CD
:1008E00020F01600086005980168486920F0800033
:1008F00048610598006C20B9FFE70598806C38B115
:10090000FFE705980168086820F008000860FFE725
:100910000598C16D3F2088400199886005990120A4
:1009200081F83500FFE70599002081F83400FFE7E2
:100930000598006D20B1FFE70598016D8847FFE736
:100940007BE0059800680068400300281AD5FFE79F
:100950000598006800680003002809D4FFE705989F
:10096000406C20B1FFE70598416C8847FFE708E03D
:100970000598C06B20B1FFE70598C16B8847FFE77A
:10098000FFE720E0059800680068C005002811D442
:10099000FFE705980168086820F0100008600599D5
:1009A000012081F83500FFE70599002081F8340027
:1009B000FFE7FFE70598C06B20B1FFE70598C16B23
:1009C0008847FFE7FFE7FFE7FFE70598406DA0B323
:1009D000FFE70598406DC00730B3FFE70599052094
:1009E00081F8350005980168086820F0010008606A
:1009F000FFE70398013003900299884201D9FFE78D
:100A000007E0FFE7059800680068C0070028F0D1FC
:100A1000FFE70599012081F83500FFE705990020DF
:100A200081F83400FFE7FFE70598C06C20B1FFE7CD
:100A30000598C16C8847FFE7FFE706B080BD00005E
:100A400080B586B004900020039000F029FB02904E
:100A5000049820B9FFE701208DF81700A3E004985F
:100A6000406A08B1FFE7FFE70499022081F83500EA
:100A7000FFE70499002081F83400FFE7049801683B
:100A8000086820F001000860FFE70498006800682B
:100A9000C00790B1FFE700F003FB0299401A062857
:100AA0000AD3FFE70499202048650499032081F8C0
:100AB00035008DF8170076E0E7E7049800680068D5
:100AC0000390039848F23F01CFF2100108400390D1
:100AD000049900914868D1F808C0CB680A6940EAD7
:100AE0000C00184310434A6910438A691043CA69CD
:100AF0001043096A01430398084303900498406A2D
:100B0000042808D1FFE70499C86A096B01430398D8
:100B100008430390FFE70398049909680860049864
:100B2000006840690390039820F007000390049840
:100B3000416A0398084303900498406A04281AD134
:100B4000FFE70498816A0398084303900498C06AF9
:100B500080B1FFE70498FFF7A1FC50B1FFE70499CB
:100B6000402048650499012081F835008DF8170070
:100B700019E0FFE7FFE703980499096848610498C2
:100B8000FFF760FC01900498C16D3F2088400199F7
:100B90008860049900204865049A012182F8351084
:100BA0008DF81700FFE79DF8170006B080BD000024
:100BB00080B588B0069005910492039300208DF8CB
:100BC0000B000698806D0190FFE7069890F83400BE
:100BD000012804D1FFE702208DF81F0045E00699A7
:100BE000012081F83400FFE7FFE7069890F8350010
:100BF00001282BD1FFE70699022081F835000699DC
:100C00000020486506980599049A039BFFF7BEFCEF
:100C10000698C16D3F208840019988600698016858
:100C2000086840F0160008600698006C38B1FFE7CD
:100C300006980168086840F008000860FFE7069819
:100C40000168086840F00100086009E0FFE70699C4
:100C5000002081F83400FFE702208DF80B00FFE749
:100C60009DF80B008DF81F00FFE79DF81F0008B0EE
:100C700080BD000080B584B0039000F011FA0290AE
:100C8000039801900198013048B1FFE740F2040059
:100C9000C2F200000178019808440190FFE7FFE7E5
:100CA00000F0FEF90299401A0199884201D2FFE74B
:100CB000F6E704B080BD00008EB00D900C910020CE
:100CC0000A90099008900B90FFE70B980F2800F20C
:100CD000CC81FFE70B99012088400A900C980068AE
:100CE0000A990840099009980A99884240F0B88109
:100CF000FFE70C98406800F00300012807D0FFE7E9
:100D00000C98406800F0030002282FD1FFE70D98EF
:100D1000806808900B984100032000FA01F10898C0
:100D2000884308900C98C0680B99490000FA01F1BB
:100D300008980843089008980D9988600D984068B5
:100D400008900B99012000FA01F108988843089057
:100D50000C984068C0F300100B9900FA01F1089854
:100D60000843089008980D994860FFE70C98406880
:100D700000F00300032818D0FFE70D98C068089022
:100D80000B984100032000FA01F10898884308906D
:100D90000C9880680B99490000FA01F10898084303
:100DA000089008980D99C860FFE70C98406800F01B
:100DB0000300022826D1FFE70D980B996FF003027C
:100DC00002EA51010844006A08900B9800F00700FD
:100DD00081000F2000FA01F10898884308900C98D0
:100DE00000690B9901F00701890000FA01F10898E8
:100DF0000843089008980D990B9B02EA530211448E
:100E00000862FFE70D98006808900B9841000320E6
:100E100000FA01F10898884308900C98406800F0A7
:100E200003000B99490000FA01F108980843089063
:100E300008980D9908600C9880798007002800F0C8
:100E40000E81FFE7FFE70020079043F64400C4F25D
:100E50000200016841F480410160006800F48040B4
:100E600007900798FFE70B9820F0030043F608016E
:100E7000C4F20101405808900B9800F00300810073
:100E80000F2000FA01F10898884308900D9800217E
:100E9000C4F20201884203D1FFE7002006905EE021
:100EA0000D9840F20041C4F20201884203D1FFE7ED
:100EB0000120059050E00D9840F60001C4F20201B7
:100EC000884203D1FFE70220049042E00D9840F6EB
:100ED0000041C4F20201884203D1FFE703200390DE
:100EE00034E00D9841F20001C4F20201884203D1BE
:100EF000FFE70420029026E00D9841F20041C4F281
:100F00000201884203D1FFE70520019018E00D9807
:100F100041F60001C4F20201884203D1FFE7062036
:100F200000900AE00D9941F60042C4F20202082046
:100F3000914208BF07200090FFE700980190FFE76B
:100F400001980290FFE702980390FFE7039804904E
:100F5000FFE704980590FFE705980690FFE70698DD
:100F6000C0B20B9901F00301890000FA01F1089861
:100F70000843089008980B9921F0030143F60802F2
:100F8000C4F20102885043F60840C4F20100006830
:100F9000089009990898884308900C988079C006B1
:100FA000002805D5FFE70999089808430890FFE74E
:100FB000089843F60841C4F20101086043F60C406A
:100FC000C4F20100006808900999089888430890C5
:100FD0000C9880798006002805D5FFE709990898C4
:100FE00008430890FFE7089843F60C41C4F201015A
:100FF000086043F60440C4F20100006808900999B3
:101000000898884308900C9880798007002805D5B7
:10101000FFE70999089808430890FFE7089843F606
:101020000441C4F20101086043F60040C4F201002B
:101030000068089009990898884308900C9880796E
:10104000C00728B1FFE70999089808430890FFE70F
:10105000089843F60041C4F201010860FFE7FFE78A
:10106000FFE70B9801300B902FE60EB070470000A1
:1010700082B00190ADF802108DF801209DF80100BA
:1010800028B1FFE7BDF802000199886105E0BDF8CD
:101090000200000401998861FFE702B07047000078
:1010A00040F20020C2F200000068704740F20400E5
:1010B000C2F20000027840F20021C2F2000108688A
:1010C000104408607047000080B543F60041C4F248
:1010D0000201086840F400700860086840F480600D
:1010E0000860086840F480700860032000F08AF807
:1010F0000F2000F005F800F03BF8002080BD000054
:1011000080B582B0009040F20000C2F2000000689A
:1011100040F20401C2F200010A784FF47A71B1FB87
:10112000F2F1B0FBF1F000F0A5FD20B1FFE70120E6
:101130008DF8070018E000980F280DD8FFE70099F8
:101140004FF0FF30002200F043F8009840F2080111
:10115000C2F20001086003E001208DF8070003E0FF
:1011600000208DF80700FFE79DF8070002B080BD62
:1011700082B0FFE70020019043F64400C4F2020071
:10118000016841F480410160006800F480400190F2
:101190000198FFE7FFE70020009043F64000C4F20B
:1011A0000200016841F080510160006800F0805049
:1011B00000900098FFE702B07047000080B582B051
:1011C0008DF807009DF9070002F0B6FF02B080BD60
:1011D00080B586B08DF8170004910392002002902C
:1011E00002F0C2FF02909DF9170001900298049945
:1011F000039A01F0C7FE0146019802F0BDFF06B058
:1012000080BD000080B582B00190019802F0D6FF49
:1012100002B080BD80B584B002900191029820B9DF
:10122000FFE701208DF80F0021E1019843F600410E
:10123000C4F20201096801F00701884212D9FFE7F0
:10124000019943F60040C4F202000170006800F00A
:1012500007000199884204D0FFE701208DF80F00B4
:1012600005E1FFE702980078800700282AD5FFE70C
:10127000029800784007002809D5FFE743F60801E7
:10128000C4F20201086840F4E0500860FFE70298E9
:1012900000780007002809D5FFE743F60801C4F2EB
:1012A0000201086840F460400860FFE743F6080167
:1012B000C4F20201086820F0F000029A926810431C
:1012C0000860FFE702980078C00700286ED0FFE7AB
:1012D00002984068012811D1FFE743F60000C4F2EC
:1012E0000200006800F400310020B0EB514F04D13F
:1012F000FFE701208DF80F00B9E02CE0029840686C
:10130000022805D0FFE702984068032811D1FFE7C3
:1013100043F60000C4F20200006800F000710020F3
:10132000B0EB516F04D1FFE701208DF80F009EE074
:1013300010E043F60000C4F20200006800F0020171
:101340000020B0EB510F04D1FFE701208DF80F0012
:101350008DE0FFE7FFE743F60801C4F202010868E9
:1013600020F00300029A526810430860FFF798FECD
:101370000090FFE743F60800C4F20200006800F0A6
:101380000C0002994968B0EB810F0ED0FFE7FFF720
:1013900087FE0099401A41F28931884204D3FFE761
:1013A00003208DF80F0062E0E4E7FFE7019843F6C1
:1013B0000041C4F20201096801F00701884212D21B
:1013C000FFE7019943F60040C4F202000170006893
:1013D00000F007000199884204D0FFE701208DF852
:1013E0000F0044E0FFE702980078400700280CD582
:1013F000FFE743F60801C4F20201086820F4E05058
:10140000029AD26810430860FFE70298007800074C
:1014100000280DD5FFE743F60801C4F20201086871
:1014200020F46040029A126940EAC2000860FFE7B7
:1014300000F04CF843F60801C4F202010968C9B291
:101440000A0944F61621C0F60001895CC84040F242
:101450000001C2F20001086040F20800C2F2000080
:101460000068FFF74DFE00208DF80F00FFE79DF8A4
:101470000F0004B080BD000040F20000C2F2000086
:101480000068704780B5FFF7F7FF43F60801C4F224
:1014900002010968C1F3822244F62621C0F6000148
:1014A000895CC84080BD000080B5FFF7E5FF43F6CA
:1014B0000801C4F20201096889B24A0B44F62621E8
:1014C000C0F60001895CC84080BD000080B586B0D0
:1014D0000020059004900390029043F60800C4F2A7
:1014E0000200006800F00C000146019140B1FFE7E6
:1014F000019804280AD0FFE7019808280CD04FE093
:1015000042F20040C0F2F40002904FE041F20020AD
:10151000C0F27A00029049E043F60400C4F20200EF
:10152000016801F03F01059100684002002813D5D1
:10153000FFE743F60400C4F202000068C0F388101D
:1015400041F20021C0F27A01A0FB0101059A0023BB
:10155000FEF78AFE049012E043F60400C4F2020093
:101560000068C0F3881042F20041C0F2F401A0FB11
:101570000101059A0023FEF777FE0490FFE743F68A
:101580000400C4F20200006800F44031022000EBC5
:10159000D130039004980399B0FBF1F0029005E07C
:1015A00042F20040C0F2F4000290FFE7029806B059
:1015B00080BD000080B586B00490049820B9FFE794
:1015C00001208DF8170050E304980078C007002828
:1015D00000F0A580FFE743F60800C4F202000068AF
:1015E00000F00C00042813D0FFE743F60800C4F213
:1015F0000200006800F00C0008281ED1FFE743F647
:101600000400C4F2020000684002002815D5FFE77C
:1016100043F60000C4F20200006800F4003100202C
:10162000B0EB514F08D0FFE70498406820B9FFE7BE
:1016300001208DF8170018E370E0FFE70498406878
:10164000B0F5803F09D1FFE743F60001C4F2020183
:10165000086840F48030086020E004984068B0F5E5
:10166000A02F0DD1FFE743F60001C4F20201086884
:1016700040F480200860086840F4803008600CE086
:1016800043F60001C4F20201086820F480300860CB
:10169000086820F480200860FFE7FFE7FFE7049870
:1016A0004068E8B1FFE7FFF7FBFC0390FFE743F674
:1016B0000000C4F20200006800F400310020B0EB2A
:1016C000514F0CD1FFE7FFF7EBFC0399401A652857
:1016D00004D3FFE703208DF81700C6E2E7E71CE01C
:1016E000FFF7DEFC0390FFE743F60000C4F20200C0
:1016F000006800F400310020B0EB514F0CD0FFE740
:10170000FFF7CEFC0399401A652804D3FFE70320B6
:101710008DF81700A9E2E7E7FFE7FFE7FFE7049886
:1017200000788007002840F19680FFE743F6080024
:10173000C4F20200006810F00C0F13D0FFE743F66C
:101740000800C4F20200006800F00C0008282CD148
:10175000FFE743F60400C4F20200006840020028DC
:1017600023D4FFE743F60000C4F20200006800F053
:1017700002010020B0EB510F09D0FFE70498C068C8
:10178000012804D0FFE701208DF817006DE243F631
:101790000001C4F20201086820F0F800049A1269FE
:1017A00040EAC2000860FFE754E00498C06870B3E4
:1017B000FFE70021C4F2472101200860FFF770FC19
:1017C0000390FFE743F60000C4F20200006800F057
:1017D00002010020B0EB510F0CD1FFE7FFF760FCD6
:1017E0000399401A032804D3FFE703208DF817005C
:1017F0003BE2E7E743F60001C4F20201086820F08B
:10180000F800049A126940EAC200086021E0002151
:10181000C4F2472100200860FFF742FC0390FFE775
:1018200043F60000C4F20200006800F0020100204C
:10183000B0EB510F0CD0FFE7FFF732FC0399401AD1
:10184000032804D3FFE703208DF817000DE2E7E734
:10185000FFE7FFE7FFE704980078000700284BD573
:10186000FFE70498406918B3FFE740F68061C4F2CF
:10187000472101200860FFF713FC0390FFE743F6C0
:101880007400C4F20200006800F002010020B0EB16
:10189000510F0CD1FFE7FFF703FC0399401A03280F
:1018A00004D3FFE703208DF81700DEE1E7E722E02D
:1018B00040F68061C4F2472100200860FFF7F0FB8A
:1018C0000390FFE743F67400C4F20200006800F0E2
:1018D00002010020B0EB510F0CD0FFE7FFF7E0FB57
:1018E0000399401A032804D3FFE703208DF817005B
:1018F000BBE1E7E7FFE7FFE704980078400700282F
:1019000040F1CE80FFE700208DF8070043F640004D
:10191000C4F202000068C000002815D4FFE7FFE70A
:101920000020009043F64000C4F20200016841F03C
:1019300080510160006800F0805000900098FFE73F
:1019400001208DF80700FFE747F20000C4F2000015
:101950000068C005002822D4FFE747F20001C4F266
:101960000001086840F480700860FFF799FB03905D
:10197000FFE747F20000C4F200000068C00500283D
:101980000CD4FFE7FFF78CFB0399401A032804D31C
:10199000FFE703208DF8170067E1EAE7FFE7FFE7BD
:1019A00004988068012809D1FFE743F67001C4F26A
:1019B0000201086840F0010008601FE00498806898
:1019C00005280DD1FFE743F67001C4F20201086853
:1019D00040F004000860086840F0010008600CE076
:1019E00043F67001C4F20201086820F001000860AB
:1019F000086820F004000860FFE7FFE7FFE70498AD
:101A00008068F8B1FFE7FFF74BFB0390FFE743F671
:101A10007000C4F20200006800F002010020B0EB88
:101A2000510F0ED1FFE7FFF73BFB0399401A41F23C
:101A30008931884204D3FFE703208DF8170014E1B1
:101A4000E5E71EE0FFF72CFB0390FFE743F670008D
:101A5000C4F20200006800F002010020B0EB510F58
:101A60000ED0FFE7FFF71CFB0399401A41F28931C2
:101A7000884204D3FFE703208DF81700F5E0E5E77F
:101A8000FFE79DF80700012809D1FFE743F6400171
:101A9000C4F20201086820F080500860FFE7FFE709
:101AA00004988069002800F0DC80FFE743F6080016
:101AB000C4F20200006800F00C00082800F08580E5
:101AC000FFE70498806902285CD1FFE76021C4F237
:101AD000472100200860FFF7E3FA0390FFE743F691
:101AE0000000C4F20200006800F000710020B0EBBA
:101AF000516F0CD0FFE7FFF7D3FA0399401A032880
:101B000004D3FFE703208DF81700AEE0E7E7049960
:101B1000C869D1F820C04B6A8A6A40EA0C0040EAE2
:101B20008310D2034FF6FF739A43A2F5803210431D
:101B3000C96A40EA016043F60401C4F20201086088
:101B40006021C4F2472101200860FFF7A9FA039041
:101B5000FFE743F60000C4F20200006800F00071E5
:101B60000020B0EB516F0CD1FFE7FFF799FA039912
:101B7000401A032804D3FFE703208DF8170074E010
:101B8000E7E721E06021C4F2472100200860FFF769
:101B900087FA0390FFE743F60000C4F202000068F2
:101BA00000F000710020B0EB516F0CD0FFE7FFF7A1
:101BB00077FA0399401A032804D3FFE703208DF82E
:101BC000170052E0E7E7FFE74AE004988069012840
:101BD00004D1FFE701208DF8170046E043F604002A
:101BE000C4F202000068029004988069012831D094
:101BF000FFE7029800F480000499C969884229D15E
:101C0000FFE7029800F03F000499096A884221D159
:101C1000FFE7029847F6C07108400499496AB0EBA3
:101C2000811F17D1FFE7029800F440300499896AB8
:101C3000C9034FF6FF729143A1F58031884209D163
:101C4000FFE7029800F070600499C96AB0EB016F79
:101C500004D0FFE701208DF8170006E0FFE7FFE75B
:101C6000FFE700208DF81700FFE79DF8170006B08A
:101C700080BD000080B582B00190019801F0BCF9F0
:101C800002B080BD84B00290019100200090FFE777
:101C9000029890F83C00012804D1FFE702208DF85B
:101CA0000F0044E00299012081F83C00FFE7FFE7C4
:101CB000009820F0FF000199C9680843009000983F
:101CC00020F440700199896808430090009820F43E
:101CD00080600199496808430090009820F40060F2
:101CE0000199096808430090009820F480500199F8
:101CF000096908430090009820F40050019949694F
:101D000008430090009820F480400199C969084375
:101D100000900098029909684864FFE70299002042
:101D200081F83C00FFE700208DF80F00FFE79DF8E9
:101D30000F0004B07047000085B003900291FFE7E8
:101D4000039890F83C00012804D1FFE702208DF8A9
:101D500013007EE00399012081F83C00FFE7FFE7D4
:101D60000399022081F83D000398006840680190C3
:101D70000398006880680090019820F0700001903E
:101D80000298016801980843019001980399096835
:101D90004860039800680021C4F2010188423CD0E9
:101DA000FFE703980068B0F1804F36D0FFE7039853
:101DB000006840F20041C4F2000188422DD0FFE7E4
:101DC0000398006840F60001C4F20001884224D064
:101DD000FFE70398006840F60041C4F20001884222
:101DE0001BD0FFE70398006840F20041C4F20101F4
:101DF000884212D0FFE70398006844F20001C4F261
:101E00000101884209D0FFE70398006841F600010C
:101E1000C4F2000188420ED1FFE7009820F0800054
:101E20000090029841680098084300900098039938
:101E300009688860FFE70399012081F83D00FFE70A
:101E40000399002081F83C00FFE700208DF8130083
:101E5000FFE79DF8130005B07047000080B582B021
:101E60000090009820B9FFE701208DF807003FE0BF
:101E7000009890F83D0040B9FFE70099002081F8F4
:101E80003C00009800F038F8FFE70099022081F844
:101E90003D00009951F8040B01F044F9009901202C
:101EA00081F84600FFE70099012081F83E00009983
:101EB00081F83F00009981F84000009981F84100C5
:101EC000FFE7FFE70099012081F84200009981F8BF
:101ED0004300009981F84400009981F84500FFE72C
:101EE0000099012081F83D0000208DF80700FFE7F0
:101EF0009DF8070002B080BD82B001900198006893
:101F00000021C4F20101884212D1FFE7FFE700205F
:101F1000009043F64400C4F20200016841F0010160
:101F20000160006800F0010000900098FFE7FFE703
:101F300002B0704780B586B00490039100208DF800
:101F40000B00FFE7049890F83C00012804D1FFE75C
:101F500002208DF81700ABE00499012081F83C00C5
:101F6000FFE7FFE70499022081F83D00049800682C
:101F700080680190019820F077000190019820F48A
:101F80007F4001900198049909688860039800686F
:101F90000090002872D0FFE7009810286ED0FFE76D
:101FA000009820286AD0FFE70098302866D0FFE725
:101FB0000098402855D0FFE70098502837D0FFE719
:101FC0000098602840D0FFE7009870280BD0FFE70A
:101FD0000098B0F5805F05D0FFE70098B0F5005F8E
:101FE00016D052E055E004980068039B5A6899683F
:101FF000DB6801F081F9049800688068019001981D
:1020000040F077000190019804990968886040E0E9
:1020100004980068039B5A689968DB6801F06CF9C2
:1020200004980168886840F48040886031E0049832
:102030000068039A5168D26801F04AFB049800686E
:10204000502101F073F924E004980068039A516864
:10205000D26801F065FB04980068602101F066F920
:1020600017E004980068039A5168D26801F030FBC9
:1020700004980068402101F059F90AE004980068CA
:102080000399096801F052F903E001208DF80B0073
:10209000FFE70499012081F83D00FFE70499002043
:1020A00081F83C00FFE79DF80B008DF81700FFE773
:1020B0009DF8170006B080BD80B588B0079000205D
:1020C0000690059004900390029007980068002104
:1020D000C4F20101884223D1FFE7FFE7002001900D
:1020E00043F63000C4F20200016841F010010160C3
:1020F000006800F0100001900198FFE74FF4D44011
:102100000290022003900020049005900120069088
:1021100041F20000C4F2020002A9FEF7CDFDFFE784
:1021200008B080BD80B586B0049003910292002073
:102130008DF80700FFE7049890F83C00012804D1CF
:10214000FFE702208DF8170089E00499012081F84B
:102150003C00FFE7FFE7029800900C2800F2708037
:102160000099DFE801F0076D6D6D206D6D6D3A6DC2
:102170006D6D530004980068039901F0EDF8049820
:102180000168886940F008008861049801688869DE
:1021900020F0040088610398026904980168886946
:1021A0001043886150E004980068039901F04AF9EF
:1021B00004980168886940F40060886104980168A7
:1021C000886920F480608861039802690498016836
:1021D000886940EA0220886136E004980068039923
:1021E00001F0AAF904980168C86940F00800C861C4
:1021F00004980168C86920F00400C8610398026966
:1022000004980168C8691043C8611DE0049800681B
:10221000039901F00BFA04980168C86940F4006062
:10222000C86104980168C86920F48060C861039897
:10223000026904980168C86940EA0220C86103E0A5
:1022400001208DF80700FFE7FFE70499002081F8DF
:102250003C00FFE79DF807008DF81700FFE79DF8A9
:10226000170006B080BD000080B582B000900098D5
:1022700020B9FFE701208DF807003FE0009890F8B3
:102280003D0040B9FFE70099002081F83C0000982C
:1022900000F038F8FFE70099022081F83D0000992E
:1022A00051F8040B00F03EFF0099012081F8460030
:1022B000FFE70099012081F83E00009981F83F0076
:1022C000009981F84000009981F84100FFE7FFE79D
:1022D0000099012081F84200009981F8430000999B
:1022E00081F84400009981F84500FFE7009901203A
:1022F00081F83D0000208DF80700FFE79DF80700FA
:1023000002B080BD81B0009001B0704780B58CB044
:102310000A900991099828B9FFE70A9890F83E00B9
:1023200007901CE00998042805D1FFE70A9890F867
:102330003F00069010E00998082805D1FFE70A98A9
:1023400090F84000059004E00A9890F8410005904C
:10235000FFE705980690FFE706980790FFE70798C4
:10236000012804D0FFE701208DF82F00AFE0099885
:1023700028B9FFE70A99022081F83E001EE009987B
:10238000042806D1FFE70A99022081F83F00049053
:1023900012E00998082806D1FFE70A99022081F87F
:1023A0004000039005E00A99022081F84100039063
:1023B000FFE703980490FFE70498FFE70A98006896
:1023C00009990122019200F07BFF01980A9909689E
:1023D0000022C4F20102914202900CD0FFE70A9859
:1023E00000684FF60041CBF6FE710844B0FA80F069
:1023F00040090290FFE70298C00738B1FFE70A984A
:102400000168486C40F400404864FFE70A9800689F
:102410000021C4F2010188423CD0FFE70A9800681D
:10242000B0F1804F36D0FFE70A98006840F20041D3
:10243000C4F2000188422DD0FFE70A98006840F6F8
:102440000001C4F20001884224D0FFE70A98006826
:1024500040F60041C4F2000188421BD0FFE70A9811
:10246000006840F20041C4F20101884212D0FFE747
:102470000A98006844F20001C4F20101884209D0C0
:10248000FFE70A98006841F60001C4F200018842A3
:1024900012D1FFE70A980068806800F007000890F2
:1024A0000898062807D0FFE70A980168086840F0F6
:1024B00001000860FFE706E00A980168086840F03C
:1024C00001000860FFE700208DF82F00FFE79DF86E
:1024D0002F000CB080BD000082B00190ADF802105A
:1024E00002B0704780B584B003900020029003983A
:1024F00000684069C0B2C0090290039890F83D009E
:10250000212823D1FFE7029800B3FFE7FFE7FFE7A9
:102510000398006850E8050F20F080000190FFE765
:1025200001990398026842E805100028F0D1FFE7FE
:10253000FFE70398406B28B1FFE70398406BFEF775
:1025400057F8FFE7039801F051FAFFE70398006896
:102550004069C0F380100290039890F83E00222852
:1025600023D1FFE7029800B3FFE7FFE7FFE70398F7
:10257000006850E8050F20F040000090FFE7009948
:102580000398026842E805100028F0D1FFE7FFE752
:102590000398806B28B1FFE70398806BFEF728F85B
:1025A000FFE7039801F0C4F9FFE7002004B080BD05
:1025B00081B0009001B0704780B592B01190119831
:1025C00000680068109011980068C0680F9011981A
:1025D000006840690E9000200D900C90109800F05B
:1025E0000F000D900D9888B9FFE79DF84000800618
:1025F00000280AD5FFE79DF83C008006002804D596
:10260000FFE7119801F00EFAE3E1FFE70D980028CB
:1026100000F0C280FFE79DF83800C00738B9FFE737
:10262000BDF83C0010F4907F00F0B680FFE79DF805
:102630004000C00758B1FFE79DF83D00C00730B12A
:10264000FFE71199086C40F001000864FFE79DF86E
:102650004000400700280BD5FFE79DF83800C00771
:1026600030B1FFE71199086C40F002000864FFE701
:102670009DF84000800700280BD5FFE79DF8380043
:10268000C00730B1FFE71199086C40F004000864FE
:10269000FFE79DF840000007002811D5FFE79DF8EF
:1026A0003C008006002805D4FFE79DF83800C007ED
:1026B00030B1FFE71199086C40F008000864FFE7AB
:1026C0001198006C002866D0FFE79DF84000800656
:1026D00000280AD5FFE79DF83C008006002804D5B5
:1026E000FFE7119801F09EF9FFE711980068406933
:1026F000C0F380100C901198006C0007002804D4DF
:10270000FFE70C9800283ED0FFE7119801F010F980
:10271000119800684069400600282FD5FFE7FFE7C1
:10272000FFE71198006850E8050F20F040000B907B
:10273000FFE70B991198026842E805100028F0D1D4
:10274000FFE7FFE71198806B98B1FFE71198816B65
:1027500043F27570C0F6000008651198806BFDF7B4
:10276000BDFF28B1FFE71198806B016D8847FFE737
:1027700003E01198FFF71CFFFFE703E01198FFF754
:1027800017FFFFE706E01198FFF712FF11990020ED
:102790000864FFE7FFE71CE11198006B012840F097
:1027A000F880FFE79DF84000C006002840F1F18066
:1027B000FFE79DF83C00C006002840F1EA80FFE7F3
:1027C000FFE700200A901198006800680A901198AD
:1027D000006840680A900A98FFE71198006840690D
:1027E000400600287ED5FFE71198806B006840689E
:1027F000ADF82600BDF82600002872D0FFE7BDF82E
:1028000026001199898D88426BDAFFE7BDF8260012
:102810001199C8851198806BC069B0F5807F58D038
:10282000FFE7FFE7FFE71198006850E8030F20F487
:1028300080700890FFE708991198026842E8031039
:102840000028F0D1FFE7FFE7FFE7FFE711980068F6
:1028500050E8050F20F001000790FFE70799119855
:10286000026842E805100028F0D1FFE7FFE7FFE724
:10287000FFE71198006850E8050F20F0400006902F
:10288000FFE706991198026842E805100028F0D188
:10289000FFE7FFE71199202081F83E001199002001
:1028A0000863FFE7FFE71198006850E8030F20F086
:1028B00010000590FFE705991198026842E803109F
:1028C0000028F0D1FFE7FFE71198806BFDF790FE3D
:1028D000FFE71198818DC28D891A89B2FFF7FCFD3F
:1028E000FFE776E01199888DC98D401AADF8120086
:1028F0001198C08D00284BD0FFE7BDF812000028CA
:1029000046D0FFE7FFE7FFE71198006850E8030FA4
:1029100020F490700390FFE703991198026842E851
:1029200003100028F0D1FFE7FFE7FFE7FFE711986A
:10293000006850E8050F20F001000290FFE70299BF
:102940001198026842E805100028F0D1FFE7FFE780
:102950001199202081F83E00119900200863FFE7BB
:10296000FFE71198006850E8030F20F01000019075
:10297000FFE701991198026842E803100028F0D19E
:10298000FFE7FFE71198BDF81210FFF7A5FDFFE77D
:102990001FE09DF84000000600280AD5FFE79DF8DB
:1029A0003C000006002804D5FFE7119801F016FA54
:1029B0000FE09DF84000400600280AD5FFE79DF88B
:1029C0003C004006002804D5FFE7119800F0FAFF0C
:1029D000FFE712B080BD000080B582B00090009883
:1029E00020B9FFE701208DF807003EE000988069DC
:1029F00008B1FFE700E0FFE7009890F83D0040B91C
:102A0000FFE70099002081F83C00009800F032F8C0
:102A1000FFE70099242081F83D0000980168C8680C
:102A200020F40050C860009801F0AEF800980168EA
:102A3000086920F49040086100980168486920F016
:102A40002A00486100980168C86840F40050C860D6
:102A5000009900200864009A202182F83D10009A15
:102A600082F83E108DF80700FFE79DF8070002B0DE
:102A700080BD000080B58CB00B9000200A900990BA
:102A80000890079006900B98006841F20001C4F28C
:102A90000101884240F09680FFE7FFE700200590A3
:102AA00043F64400C4F20200016841F010010160E5
:102AB000006800F0100005900598FFE7FFE7002090
:102AC000049043F63000C4F20200016841F00101B5
:102AD0000160006800F0010004900498FFE74FF4E3
:102AE000C06006900220079000200290089003200A
:102AF000099007200A900020C4F2020006A9FEF700
:102B0000DBF8029940F27400C2F20000039046F232
:102B10004042C4F2020202604FF0006242608160F3
:102B2000C1604FF48062026141618161C1614FF413
:102B3000403202624162FDF783FF18B1FFE7FDF703
:102B40004FFDFFE7FFE70B9840F27401C2F200016E
:102B500081630B988863FFE740F2D400C2F2000063
:102B6000019046F2B841C4F2020101604FF00061E9
:102B70004160402181600021C1604FF480620261A8
:102B800041618161C1614FF4403202624162FDF7EF
:102B900057FF18B1FFE7FDF723FDFFE7FFE70B98AD
:102BA00040F2D401C2F2000141630B988863FFE751
:102BB0002520009000221146FEF70AFB0098FEF740
:102BC000FDFAFFE70CB080BD80B584B002900191A2
:102BD000ADF80220029890F83E00202828D1FFE7A7
:102BE000019820B1FFE7BDF8020020B9FFE70120FE
:102BF0008DF80F0020E0FFE7029890F83C000128D4
:102C000004D1FFE702208DF80F0015E002990120A2
:102C100081F83C00FFE7FFE7029900200863029873
:102C20000199BDF8022001F04DF88DF80F0003E086
:102C300002208DF80F00FFE79DF80F0004B080BD63
:102C400081B0009001B0704781B0009001B0704732
:102C500081B0009001B07047FFE7FEE780B584B017
:102C6000FFE70020039043F63000C4F20200016841
:102C700041F480010160006800F480000390039833
:102C8000FFE73A200090002201921146FEF7A0FAD9
:102C90000098FEF793FA019A462002901146FEF73B
:102CA00097FA0298FEF78AFA04B080BD80B590B01A
:102CB00000200F900E900D900C900B90FFE70020DD
:102CC0000A9043F63000C4F20200016841F00401AA
:102CD0000160006800F004000A900A98FFE7FFE72F
:102CE0000020099043F63000C4F20200016841F070
:102CF00020010160006800F0200009900998FFE7BA
:102D0000FFE70020089043F63000C4F2020001689B
:102D100041F080010160006800F080000890089890
:102D2000FFE7FFE70020079043F63000C4F20200FF
:102D3000016841F010010160006800F01000079088
:102D40000798FFE7FFE70020069043F63000C4F243
:102D50000200016841F001010160006800F001001B
:102D600006900698FFE741F20040C4F2020001908D
:102D70004FF4007101220292FEF77AF901984FF4A4
:102D8000806100220392FEF773F90299039A40F6DC
:102D90000000C4F202000490FEF76AF90198029A5A
:102DA00003994FF4C0630B930C920D910E910BA9F4
:102DB0000591FDF781FF029B039A049805990B93F7
:102DC0000C930D920E92FDF777FF10B080BD0000BE
:102DD00080B598B000210191179116911591149129
:102DE00013911291119110910F910E910D910C91DF
:102DF0000B910A910991089107910691059104910F
:102E0000039140F23410C2F2000002900022C4F29A
:102E100001020260A7224260816044F61F62C26024
:102E2000016141618161FFF719F818B1FFE7FDF712
:102E3000D7FBFFE74FF48050149040F23410C2F2F9
:102E4000000014A9FFF776F818B1FFE7FDF7C8FBFB
:102E5000FFE740F23410C2F20000FFF705FA18B1A4
:102E6000FFE7FDF7BDFBFFE700201290139040F253
:102E70003410C2F2000012A9FEF75EFF18B1FFE79E
:102E8000FDF7AEFBFFE760200B9000220C920D9245
:102E90000E920F921092119240F23410C2F2000082
:102EA0000BA9FFF73FF918B1FFE7FDF799FBFFE723
:102EB00040F23410C2F200000BA90422FFF732F9ED
:102EC00018B1FFE7FDF78CFBFFE740F23410C2F2C8
:102ED00000000BA90822FFF725F918B1FFE7FDF75D
:102EE0007FFBFFE740F23410C2F200000BA90C2276
:102EF000FFF718F918B1FFE7FDF772FBFFE70020B5
:102F0000039004900590069007904FF400510891AB
:102F10000A9040F23410C2F2000003A9FEF7B2FE9C
:102F200018B1FFE7FDF75CFBFFE740F23410C2F297
:102F30000000FFF7C1F818B080BD000080B582B076
:102F400040F27C10C2F20000019041F20001C4F294
:102F5000010101604FF41651416000218160C160A0
:102F600001610C2242618161C161FFF735FD18B139
:102F7000FFE7FDF735FBFFE702B080BDFFE7FEE7A7
:102F8000FFE7FEE788B0079006910592079800F0EA
:102F9000070004900498C0F10700052803D3FFE759
:102FA0000420019004E00498C0F107000190FFE7BD
:102FB0000198039004980430062803D8FFE7002006
:102FC000009003E0049803380090FFE70098029017
:102FD00006980399012202FA01F101390840029B87
:102FE000984005999A40013A1140084308B070474B
:102FF000704700007047000080B582B000900098D4
:103000000138B0F1807F03D3FFE70120019019E080
:10301000009801384EF21401CEF2000108604FF022
:10302000FF300F2101F0A8F84EF21801CEF2000196
:10303000002008604EF21002CEF20002072111605B
:103040000190FFE7019802B080BD000080B5FEF757
:103050002DF880BD80B594B008A83021FDF77CF92B
:10306000002007900690059004900390FFE7002051
:10307000029043F64000C4F20200016841F0805122
:103080000160006800F0805002900298FFE7FFE7BF
:103090000020019047F20000C4F20000016841F4F2
:1030A00080410160006800F4804001900198FFE7D2
:1030B0000220089001210B9110210C910E9000210B
:1030C0000F9108211091A8211191129004201390C2
:1030D00008A8FEF76FFA18B1FFE7FDF781FAFFE7DE
:1030E0000F20039002200490002005904FF4A05080
:1030F00006904FF48050079003A80521FEF78AF848
:1031000018B1FFE7FDF76CFAFFE714B080BD0000CF
:103110004EF68851CEF20001086840F47000086055
:103120007047000083B002900191029800680090FF
:1031300002980021C4F20101884225D0FFE70298DD
:10314000B0F1804F20D0FFE7029840F20041C4F276
:103150000001884218D0FFE7029840F60001C4F24F
:103160000001884210D0FFE7029840F60041C4F207
:103170000001884208D0FFE7029840F20041C4F203
:10318000010188420AD1FFE7009820F0700000900A
:1031900001984168009808430090FFE702980021D9
:1031A000C4F20101884255D0FFE70298B0F1804F88
:1031B00050D0FFE7029840F20041C4F2000188427B
:1031C00048D0FFE7029840F60001C4F200018842AF
:1031D00040D0FFE7029840F60041C4F20001884267
:1031E00038D0FFE7029840F20041C4F20101884262
:1031F00030D0FFE7029844F20001C4F20101884296
:1032000028D0FFE7029844F20041C4F2010188424D
:1032100020D0FFE7029844F60001C4F20101884281
:1032200018D0FFE7029841F60001C4F2000188427D
:1032300010D0FFE7029841F60041C4F20001884235
:1032400008D0FFE7029842F20001C4F20001884270
:103250000AD1FFE7009820F4407000900198C168FF
:10326000009808430090FFE7009820F08000019943
:1032700049690843009000980299086001988068A5
:103280000299C86201980068029988620298002138
:10329000C4F20101884208D0FFE7029840F20041E1
:1032A000C4F20101884205D1FFE701980069029943
:1032B0000863FFE702990120486103B070470000EE
:1032C00084B0039002910192029800F01F01012046
:1032D00088400090009A0399086A90430862019818
:1032E000029901F01F0100FA01F20399086A1043E4
:1032F000086204B07047000085B004900391029208
:103300000193049880680090009820F47F4000901A
:1033100003980299019A41EA022101430098084367
:10332000009000980499886005B0704783B00290BF
:103330000191029880680090009820F07000009041
:1033400001980099084340F0070000900098029906
:10335000886003B07047000085B004900391049921
:10336000086A20F0010008620498006A019004983D
:1033700040680090049880690290029820F07000E4
:103380000290029820F003000290039801680298CE
:1033900008430290019820F0020001900398816890
:1033A00001980843019004980021C4F20101884269
:1033B00008D0FFE7049840F20041C4F201018842BE
:1033C0000ED1FFE7019820F0080001900398C16832
:1033D000019808430190019820F004000190FFE754
:1033E00004980021C4F20101884208D0FFE7049844
:1033F00040F20041C4F20101884213D1FFE7009876
:1034000020F480700090009820F4007000900398E1
:103410004169009808430090039881690098084327
:103420000090FFE700980499486002980499886129
:10343000039840680499486301980499086205B0AC
:103440007047000085B0049003910499086A20F049
:10345000100008620498006A019004984068009087
:10346000049880690290029820F4E040029002984B
:1034700020F44070029003980168029840EA01200D
:103480000290019820F02000019003988168019833
:1034900040EA0110019004980021C4F20101884221
:1034A00008D0FFE7049840F20041C4F201018842CD
:1034B0000FD1FFE7019820F0800001900398C168C8
:1034C000019840EA01100190019820F0400001901D
:1034D000FFE704980021C4F20101884208D0FFE709
:1034E000049840F20041C4F20101884215D1FFE77F
:1034F000009820F480600090009820F40060009014
:1035000003984169009840EA81000090039881691E
:10351000009840EA81000090FFE700980499486015
:103520000298049988610398406804998863019817
:103530000499086205B0704785B00490039104991E
:10354000086A20F4807008620498006A0190049868
:10355000406800900498C0690290029820F07000C2
:103560000290029820F003000290039801680298EC
:1035700008430290019820F400700190039881683C
:10358000019840EA0120019004980021C4F2010151
:10359000884208D0FFE7049840F20041C4F20101DC
:1035A00088420FD1FFE7019820F400600190039852
:1035B000C168019840EA01200190019820F48060E0
:1035C0000190FFE704980021C4F20101884208D06D
:1035D000FFE7049840F20041C4F20101884215D18E
:1035E000FFE7009820F480500090009820F40050ED
:1035F000009003984169009840EA011000900398F8
:103600008169009840EA01100090FFE70098049952
:10361000486002980499C861039840680499C86397
:1036200001980499086205B07047000085B00490C5
:1036300003910499086A20F4805008620498006A93
:1036400001900498406800900498C0690290029824
:1036500020F4E0400290029820F440700290039819
:103660000168029840EA01200290019820F400507D
:10367000019003988168019840EA01300190049814
:103680000021C4F20101884208D0FFE7049840F20B
:103690000041C4F2010188420BD1FFE7009820F4F9
:1036A0008040009003984169009840EA81100090A2
:1036B000FFE700980499486002980499C86103984C
:1036C00040680499086401980499086205B070473D
:1036D00085B00490039102920498006A00900499C6
:1036E000086A20F00100086204988069019001983E
:1036F00020F0F00001900299019840EA0110019039
:10370000009820F00A000090039900980843009068
:1037100001980499886100980499086205B070477F
:1037200085B00490039102920499086A20F0100079
:1037300008620498806901900498006A00900198DA
:1037400020F4704001900299019840EA0130019004
:10375000009820F0A00000900399009840EA011022
:10376000009001980499886100980499086205B056
:103770007047000080B582B001900198806B009086
:1037800000990020C8850099C8840098FEF710FFB2
:1037900002B080BD80B584B00390002002900398F1
:1037A000806B0190019800684069C0B2C009029026
:1037B000019890F83D0021280AD1FFE7029838B11E
:1037C000FFE701990020C884019800F00FF9FFE796
:1037D000019800684069C0F380100290019890F849
:1037E0003E0022280AD1FFE7029838B1FFE701998D
:1037F0000020C885019800F09BF8FFE70199086C4C
:1038000040F0100008640198FEF7D2FE04B080BDBD
:1038100080B586B005900598806B04900598006887
:103820000068C00500285AD4FFE704990020C88525
:10383000FFE7FFE70498006850E8030F20F480706A
:103840000390FFE703990498026842E803100028F8
:10385000F0D1FFE7FFE7FFE7FFE70498006850E8D3
:10386000050F20F001000290FFE70299049802681A
:1038700042E805100028F0D1FFE7FFE7FFE7FFE788
:103880000498006850E8050F20F040000190FFE721
:1038900001990498026842E805100028F0D1FFE77A
:1038A000FFE70499202081F83E000498006B01286E
:1038B00014D1FFE7FFE7FFE70498006850E8030F23
:1038C00020F010000090FFE700990498026842E899
:1038D00003100028F0D1FFE7FFE7FFE7FFE70498B8
:1038E000006B012805D1FFE70498818DFEF7F4FDF8
:1038F00003E00498FFF7A4F9FFE706B080BD0000DD
:1039000080B582B001900198806B00900098006BA8
:10391000012806D1FFE70098818D4908FEF7DCFDFC
:1039200003E00098FFF790F9FFE702B080BD0000C8
:1039300084B00390FFE7FFE70398006850E8030FA7
:1039400020F490700290FFE702990398026842E821
:1039500003100028F0D1FFE7FFE7FFE7FFE7039838
:10396000006850E8050F20F001000190FFE7019981
:103970000398026842E805100028F0D1FFE7FFE74E
:103980000398006B012814D1FFE7FFE7FFE70398D6
:10399000006850E8030F20F010000090FFE7009946
:1039A0000398026842E803100028F0D1FFE7FFE720
:1039B000FFE70399202081F83E0003990020086367
:1039C00004B0704780B582B0019001980168C86862
:1039D00020F04000C8600199202081F83D00019846
:1039E000FFF736F9002002B080BD000082B00190E0
:1039F000FFE7FFE70198006850E8030F20F0C000E0
:103A00000090FFE700990198026842E8031000283F
:103A1000F0D1FFE7FFE70199202081F83D0002B0D7
:103A20007047000080B586B00490049890F83E007E
:103A3000222840F0A180FFE704988068B0F5805FFD
:103A400015D1FFE70498006988B9FFE700200390CB
:103A50000498806A02900498006840686FF35F20C1
:103A6000029908800499886A0230886225E00498E7
:103A7000806A03900020029004988068B0F5805F0F
:103A800008D0FFE70498806850B9FFE70498006900
:103A900030B9FFE70498006840680399087007E0B0
:103AA00004980068406800F07F0003990870FFE701
:103AB0000499886A01308862FFE70499C88D01384B
:103AC000C8850004002853D1FFE704980168C8683E
:103AD00020F02000C86004980168C86820F4807055
:103AE000C86004980168486920F0010048610499A1
:103AF000202081F83E000498006B012830D1FFE7B8
:103B0000049900200863FFE7FFE70498006850E885
:103B1000030F20F010000190FFE70199049802685C
:103B200042E803100028F0D1FFE7FFE7049800689F
:103B30000068C00600280ED5FFE7FFE700200090D0
:103B4000049800680068009004980068406800903D
:103B50000098FFE7FFE70498818DFEF7BDFC03E0C6
:103B60000498FFF76DF8FFE700208DF8170007E0D5
:103B700000208DF8170003E002208DF81700FFE702
:103B80009DF8170006B080BD80B586B005900598F9
:103B90000068006920F44050059A1168D26810430B
:103BA0000861059988680B694A69C9691843104317
:103BB0000843049005980068C06849F20C61884386
:103BC0000499084305990968C86005980068406928
:103BD00020F44070059A1168926910434861059875
:103BE000006841F20001C4F20101884209D0FFE7F8
:103BF0000598006841F20041C4F20101884204D1F5
:103C0000FFE7FDF751FC039003E0FDF73BFC039059
:103C1000FFE70598C069B0F5004F29D1FFE7039889
:103C20001921A0FB0101059A1368029353685A00F9
:103C3000DB0FFCF719FB0299864648F21F53C5F2C9
:103C4000EB13AEFB0320420910014FF0640C02FBA2
:103C50001CEC322202EBCC02A2FB0332F82303EA73
:103C6000521300EB4300C2F342121044886026E076
:103C700003981921A0FB0101059A13680193536869
:103C80009A009B0FFCF7F0FA0199844648F21F5204
:103C9000C5F2EB12ACFB02304309642003FB10CCED
:103CA000322000EB0C10A0FB0202F02000EA5210C0
:103CB00000EB0310C2F3431210448860FFE706B024
:103CC00080BD000080B588B007900691ADF8162041
:103CD000069807998862BDF81600079988850799A4
:103CE00000200864079A222182F83E1007998A6B07
:103CF00043F61101C0F60001D16307998A6B43F6C0
:103D00000111C0F60001116407998A6B43F29571A5
:103D1000C0F60001D1640799896B086506A8049074
:103D200007980168806B0431049A1268BDF8163058
:103D3000FCF73EFFFFE7002003900798006800684B
:103D4000039007980068406803900398FFE7FFE737
:103D50000799002081F83C00FFE707980069A0B1AF
:103D6000FFE7FFE7FFE70798006850E8030F40F41C
:103D700080700290FFE702990798026842E80310FA
:103D80000028F0D1FFE7FFE7FFE7FFE7FFE707982D
:103D9000006850E8050F40F001000190FFE701992D
:103DA0000798026842E805100028F0D1FFE7FFE716
:103DB000FFE7FFE70798006850E8050F40F0400074
:103DC0000090FFE700990798026842E80510002874
:103DD000F0D1FFE7FFE7002008B080BD83B001907D
:103DE000019890F83D0021283AD1FFE701988068BA
:103DF000B0F5805F13D1FFE70198006978B9FFE75C
:103E00000198006A0090009800886FF35F20019984
:103E1000096848600199086A0230086208E0019A5E
:103E2000106A411C11620078019909684860FFE737
:103E30000199C88C0138C884000468B9FFE701986B
:103E40000168C86820F08000C86001980168C868EF
:103E500040F04000C860FFE700208DF80B0003E051
:103E600002208DF80B00FFE79DF80B0003B07047B0
:103E700080B584B040F27C10C2F200000068006897
:103E800000F010010020B0EB111F00F04A81FFE7A5
:103E900040F27C10C2F20000FEF724FB40F2C0109A
:103EA000C2F200000078342840F02F81FFE70020A4
:103EB00000908DF80F008DF80E008DF80D008DF834
:103EC0000C008DF80B008DF80A008DF809008DF8B4
:103ED000080040F2C010C2F2000040788DF80700E0
:103EE0009DF8070000F001008DF80F009DF8070015
:103EF000C0F340008DF80E009DF80700C0F380006D
:103F00008DF80D009DF80700C0F3C0008DF80C007F
:103F10009DF80700C0F300108DF809009DF8070018
:103F2000C0F340108DF808009DF80700C0F3801022
:103F30008DF80B009DF80700C0098DF80A009DF868
:103F40000F0001281BD1FFE79DF80E00B8B9FFE76D
:103F50009DF80D0098B9FFE79DF80C0078B9FFE7D0
:103F60009DF8090058B9FFE79DF8080038B9FFE748
:103F700040F27001C2F2000101200870ABE09DF830
:103F80000F00E0B9FFE79DF80E00C0B9FFE79DF80C
:103F90000D00012813D1FFE79DF80C0078B9FFE769
:103FA0009DF8090058B9FFE79DF8080038B9FFE708
:103FB00040F27001C2F20001022008708AE09DF810
:103FC0000F00E0B9FFE79DF80E00012817D1FFE7C9
:103FD0009DF80D0098B9FFE79DF80C0078B9FFE750
:103FE0009DF8090058B9FFE79DF8080038B9FFE7C8
:103FF00040F27001C2F200010320087069E09DF8F0
:104000000F00E0B9FFE79DF80E00C0B9FFE79DF88B
:104010000D00A0B9FFE79DF80C0001280FD1FFE7C4
:104020009DF8090058B9FFE79DF8080038B9FFE787
:1040300040F27001C2F200010420087048E09DF8CF
:104040000F00E0B9FFE79DF80E00C0B9FFE79DF84B
:104050000D00A0B9FFE79DF80C0080B9FFE79DF8BF
:10406000090001280BD1FFE79DF8080038B9FFE7E8
:1040700040F27001C2F200010520087027E09DF8AF
:104080000F00E0B9FFE79DF80E00C0B9FFE79DF80B
:104090000D00A0B9FFE79DF80C0080B9FFE79DF87F
:1040A000090060B9FFE79DF80800012807D1FFE784
:1040B00040F27001C2F200010620087006E040F2F2
:1040C0007001C2F2000100200870FFE7FFE7FFE780
:1040D000FFE7FFE7FFE79DF80B0001280CD1FFE7A2
:1040E0009DF80A0040B9FFE79DF80B0040F270010F
:1040F000C2F20001487007E09DF80A0040F270012A
:10410000C2F200014870FFE7FFE740F27C10C2F204
:10411000000040F2C011C2F200014022FEF754FD3F
:10412000FFE740F27C10C2F20000FEF745FA04B04F
:1041300080BD0000FFE7FEE781B08DF803009DF928
:10414000030000280ED4FFE79DF9031001F01F02C1
:10415000012090404A094EF20011CEF2000141F8D0
:104160002200FFE701B070474EF60C50CEF200007F
:104170000068C0F30220704782B08DF807000091FC
:104180009DF9070000280AD4FFE7009800019DF977
:1041900007104EF20042CEF2000288540BE0009865
:1041A00000019DF8071001F00F014EF61452CEF2F7
:1041B00000028854FFE702B07047000083B002900D
:1041C000029800F0070000904EF60C51CEF200016C
:1041D0000868019001984FF6FF0210400190019885
:1041E000009A40EA02200022C0F2FA5210430190E5
:1041F0000198086003B0704780B58AB0002007902E
:104200000990FCF761FFFEF725FFFEF74FFDFEF773
:1042100025FDFEF7DDFDFEF791FE40F27C10C2F2B7
:1042200000000268D16841F01001D16040F2C01175
:10423000C2F200014022FEF7C7FC079940F2341099
:10424000C2F200000890FEF761F808980421FEF71A
:104250005DF808980821FEF759F808980C21FEF738
:1042600055F808990A6840F2DC5050630968886381
:1042700000F082F94FF4FA60FCF7FCFCFFE740F233
:104280007000C2F200000078012818D1FFE740F268
:104290003410C2F2000006900C21942200F0FCF8C9
:1042A00006980821822200F0F7F80698026840F28A
:1042B00014515163016840F2A4608863BAE040F28F
:1042C0007000C2F200000078022818D1FFE740F227
:1042D0003410C2F2000005900C21942200F0DCF8AA
:1042E00005980821822200F0D7F80598026840F26C
:1042F000A4615163016840F21450886399E040F270
:104300007000C2F200000078032818D1FFE740F2E5
:104310003410C2F2000004900C213A2200F0BCF8E4
:1043200004980821282200F0B7F80498026840F2A7
:1043300014515163016840F2A460886378E040F250
:104340007000C2F200000078042818D1FFE740F2A4
:104350003410C2F2000003900C21EE2200F09CF811
:1043600003980821DC2200F097F80398026840F2D5
:1043700014515163016840F2A460886357E040F231
:104380007000C2F200000078052818D1FFE740F263
:104390003410C2F2000002900C21EE2200F07CF8F2
:1043A00002980821282200F077F80298026840F26B
:1043B00014515163016840F2A460886336E040F212
:1043C0007000C2F200000078062818D1FFE740F222
:1043D0003410C2F2000001900C213A2200F05CF887
:1043E00001980821DC2200F057F80198026840F299
:1043F00014515163016840F2A460886315E040F2F3
:104400003410C2F2000000900C21942200F044F815
:1044100000980821822200F03FF800990A6840F2D3
:10442000DC50506309688863FFE7FFE7FFE7FFE7B9
:10443000FFE7FFE740F27000C2F200004078012879
:1044400009D1FFE740F60000C4F202000122114644
:10445000FCF70EFE19E040F27000C2F20000407856
:1044600048B9FFE740F60000C4F202000121002233
:10447000FCF7FEFD08E040F60000C4F20200012156
:104480000022FCF7F5FDFFE7FFE70520FCF7F2FB54
:10449000F5E600000000000080B586B005900491AC
:1044A000ADF80E200020ADF80C00BDF80E00B0F500
:1044B000877F5ADCFFE7BDF80E0044F620614843D1
:1044C0004CF6CD41CCF6CC41A0FB010108094DF2E0
:1044D0004962CFF2B92250FB02F000EB1111C81172
:1044E00000EBD17000F031F941EC100B51EC100BE6
:1044F0009FED1F0B53EC102B00F050F841EC100B0C
:1045000051EC100B00F0F2F8ADF80C00049830B943
:10451000FFE7BDF80C0005990968486324E004989A
:10452000042808D1FFE7BDF80C100846059A126868
:104530009163029016E00498082808D1FFE7BDF8BF
:104540000C100846059A1268D163019007E0BDF887
:104550000C100846059A126811640190FFE7019853
:104560000290FFE70298FFE7FFE706B080BD00BFBB
:104570000000000000407F4080B582B040F234105F
:10458000C2F20000019008218222FFF785FF019806
:104590000C219422FFF780FF02B080BD10B591EA94
:1045A000030F48BF83F0004300F14281841A71EB8E
:1045B000030C05D2121943EB0C03001B61EB0C0139
:1045C0004FEA1154A4EB135CDFF81CE11EEA430F21
:1045D00018BF9EEA445F00F0748021EA045123EA88
:1045E0000E0343F48013DCF1200E32D322FA0CFECA
:1045F00010EB0E0023FA0CFE41EB0E01CCF1200E65
:1046000003FA0EFE10EB0E00CCF1200E51F100016A
:10461000B1F5801F32D201EB045112FA0EF2BDE85F
:10462000104058BF7047401C38BF5FEA420218BFB5
:104630007047002814BF20F0010041F100014FEA4B
:10464000410313F5001F38BF7047A1F1C04100F0CE
:10465000E1B8012A43EB0302ACF1200CDCF11F0EA0
:1046600032BF4FF0000E23FA0CF310EB030041EBC6
:104670000451B4EB115FD0D0A1EB045101F58011CE
:10468000490801EB04515FEA30000ED350F10000FD
:1046900038BF12FA0EFE08D1BDE81040C9E7401C31
:1046A00038BF5FEA4202CAD1C3E7BDE810404FEA13
:1046B000410313F5001F38BF7047A1F1C04100F05E
:1046C000A9B89EEA445F08D011EA5E0FBDE8104029
:1046D00004BF01F0004100207047BDE8104070B5F4
:1046E00000F04AF864FBBE3E0000E0FF4FEA4103E1
:1046F0004FEA5353A3F58063D3F11E03C8BFD3F130
:10470000210C0CDD4FF0004242EAC12242EA505235
:1047100032FA03FC8CEAE17CACEBE1707047102BC1
:10472000C4BF0020704703F5787CBCF1FF3F04D084
:104730006FF0004282EA2100704770B500F01CF86B
:104740004992248000207047F2E710F0004248BFF1
:104750004042B0FA80F310FA03F10AD0C3F11D030E
:1047600003F5806302EB03524FEA415002EBD12183
:1047700070474FF0000070470EF1020E2EF0030E4E
:104780005EF8046B364205D4012A43EB030515F5A8
:10479000001F12D8012841EB010C1CF5001F0CD89A
:1047A0000ED14FEAD17C0CEB4C0C0CF1020C15F540
:1047B000001F08BF4CEBD37C04E04FF0080C01E075
:1047C0004FEAD37C0CEB4C0526FA05F606F00706FB
:1047D000B6F1040C06D20EEB860CBDE870404CF02E
:1047E000010C6047DFE80CF0090B02024FF00041BA
:1047F000A1F500214FF0000070BD194610460128B8
:1048000051EB010418BFD4F5001484BF002001F05F
:10481000004170BD0808A0F500114FEA3101704752
:1048200010B591EA030F48BF83F000433FF5BEAED9
:10483000841A71EB030C07D28CF0004C121943EB75
:104840000C03001B61EB0C014FEA1154A4EB135C49
:10485000DFF8A4E11EEA430F18BF9EEA445F00F0B0
:10486000B48021EA045123EA6E035242C3EB6E0383
:1048700038BF5B1EDCF1200E25D322FA0CFE10EBB4
:104880000E0043FA0CFE41EB0E01CCF1200E03FAB0
:104890000EFE10EB0E00CCF1200E51F1000129D4D8
:1048A00001EB045112FA0EF2BDE8104058BF7047F8
:1048B000401C1CBFB2F1004F704700280CBF491CC0
:1048C00020F00100704712EB020E43EB030218BF09
:1048D0004FF0010E4EEA4202ACF1200CDCF11E0E4C
:1048E00056D943FA0CFE10EB0E00CCF11E0E51F11E
:1048F000FF31D5D50EF1010E12FA0EFE404141EB0B
:10490000010101EB445C5FEA5C5C10D901EB0451EE
:1049100010EBDE7038BFBEF1004FBDE8104018BF8D
:10492000704700280CBF491C20F00100704734D2AA
:104930004FEAD42C24F4006411F500111BD0B1FA15
:1049400081F20B3AA41AA41ED2F12003914030FA4E
:1049500003F31943904001EBCC7101EB0451002C9F
:10496000BDE81040A8BF704701F1C04101F000410F
:104970004FF000007047B0FA80F310FA03F102D153
:10498000BDE810407047E41A173C4805C90AE2E741
:1049900001EB0451BDE81040704749104FEA300068
:1049A00001EB0451BDE8104002E04FF000017047F8
:1049B0004A0008BF0042F8D0B2F5001F28BF704778
:1049C00001F000414FF0000070479EEA445F07D0BD
:1049D00011EA5E0FBDE8104004BF002100207047BF
:1049E000BDE8104070B5FFF7C7FE00BF40DFF63EE0
:1049F000104683F0004170470000E0FFF1EE100A1E
:104A00004FF6FF71C0F2C03120EA010040F0407063
:104A1000E1EE100A704700000000000000000102F3
:104A20000304060708090000000001020304000651
:104A30001016000610160000584A0008000000205A
:104A400010000000C4010008684A0008100000209F
:104A5000F8070000E00100080024F4000100000055
:084A600010000000000000003E
:040000050800018965
:00000001FF
